{
  "_format": "hh-sol-artifact-1",
  "contractName": "Coterie",
  "sourceName": "contracts/Coterie.sol",
  "abi": [
    {
      "inputs": [],
      "stateMutability": "nonpayable",
      "type": "constructor"
    },
    {
      "anonymous": false,
      "inputs": [
        {
          "indexed": false,
          "internalType": "address",
          "name": "previousAdmin",
          "type": "address"
        },
        {
          "indexed": false,
          "internalType": "address",
          "name": "newAdmin",
          "type": "address"
        }
      ],
      "name": "AdminChanged",
      "type": "event"
    },
    {
      "anonymous": false,
      "inputs": [
        {
          "indexed": true,
          "internalType": "address",
          "name": "beacon",
          "type": "address"
        }
      ],
      "name": "BeaconUpgraded",
      "type": "event"
    },
    {
      "anonymous": false,
      "inputs": [
        {
          "indexed": false,
          "internalType": "uint256",
          "name": "postId",
          "type": "uint256"
        },
        {
          "indexed": false,
          "internalType": "uint256",
          "name": "commentId",
          "type": "uint256"
        },
        {
          "indexed": false,
          "internalType": "string",
          "name": "content",
          "type": "string"
        },
        {
          "indexed": false,
          "internalType": "address",
          "name": "author",
          "type": "address"
        },
        {
          "indexed": false,
          "internalType": "uint40",
          "name": "timestamp",
          "type": "uint40"
        }
      ],
      "name": "CommentCreated",
      "type": "event"
    },
    {
      "anonymous": false,
      "inputs": [
        {
          "indexed": false,
          "internalType": "uint256",
          "name": "commentId",
          "type": "uint256"
        },
        {
          "indexed": false,
          "internalType": "address",
          "name": "user",
          "type": "address"
        },
        {
          "indexed": false,
          "internalType": "uint256",
          "name": "likes",
          "type": "uint256"
        }
      ],
      "name": "CommentLiked",
      "type": "event"
    },
    {
      "anonymous": false,
      "inputs": [
        {
          "indexed": false,
          "internalType": "uint8",
          "name": "version",
          "type": "uint8"
        }
      ],
      "name": "Initialized",
      "type": "event"
    },
    {
      "anonymous": false,
      "inputs": [
        {
          "indexed": true,
          "internalType": "address",
          "name": "previousOwner",
          "type": "address"
        },
        {
          "indexed": true,
          "internalType": "address",
          "name": "newOwner",
          "type": "address"
        }
      ],
      "name": "OwnershipTransferred",
      "type": "event"
    },
    {
      "anonymous": false,
      "inputs": [
        {
          "indexed": false,
          "internalType": "address",
          "name": "account",
          "type": "address"
        }
      ],
      "name": "Paused",
      "type": "event"
    },
    {
      "anonymous": false,
      "inputs": [
        {
          "indexed": false,
          "internalType": "uint256",
          "name": "postId",
          "type": "uint256"
        },
        {
          "indexed": false,
          "internalType": "string",
          "name": "content",
          "type": "string"
        },
        {
          "indexed": false,
          "internalType": "string",
          "name": "image",
          "type": "string"
        },
        {
          "indexed": false,
          "internalType": "address",
          "name": "author",
          "type": "address"
        },
        {
          "indexed": false,
          "internalType": "uint40",
          "name": "timestamp",
          "type": "uint40"
        }
      ],
      "name": "PostCreated",
      "type": "event"
    },
    {
      "anonymous": false,
      "inputs": [
        {
          "indexed": false,
          "internalType": "uint256",
          "name": "postId",
          "type": "uint256"
        },
        {
          "indexed": false,
          "internalType": "address",
          "name": "user",
          "type": "address"
        },
        {
          "indexed": false,
          "internalType": "uint256",
          "name": "likes",
          "type": "uint256"
        }
      ],
      "name": "PostLiked",
      "type": "event"
    },
    {
      "anonymous": false,
      "inputs": [
        {
          "indexed": false,
          "internalType": "address",
          "name": "account",
          "type": "address"
        }
      ],
      "name": "Unpaused",
      "type": "event"
    },
    {
      "anonymous": false,
      "inputs": [
        {
          "indexed": true,
          "internalType": "address",
          "name": "implementation",
          "type": "address"
        }
      ],
      "name": "Upgraded",
      "type": "event"
    },
    {
      "inputs": [],
      "name": "commentId",
      "outputs": [
        {
          "internalType": "uint256",
          "name": "",
          "type": "uint256"
        }
      ],
      "stateMutability": "view",
      "type": "function"
    },
    {
      "inputs": [
        {
          "internalType": "uint256",
          "name": "",
          "type": "uint256"
        }
      ],
      "name": "comments",
      "outputs": [
        {
          "internalType": "uint256",
          "name": "postId",
          "type": "uint256"
        },
        {
          "internalType": "uint256",
          "name": "commentId",
          "type": "uint256"
        },
        {
          "internalType": "uint256",
          "name": "likes",
          "type": "uint256"
        },
        {
          "internalType": "string",
          "name": "content",
          "type": "string"
        },
        {
          "internalType": "address",
          "name": "author",
          "type": "address"
        },
        {
          "internalType": "uint40",
          "name": "timestamp",
          "type": "uint40"
        }
      ],
      "stateMutability": "view",
      "type": "function"
    },
    {
      "inputs": [
        {
          "internalType": "uint256",
          "name": "_postId",
          "type": "uint256"
        },
        {
          "internalType": "string",
          "name": "_content",
          "type": "string"
        }
      ],
      "name": "createComment",
      "outputs": [],
      "stateMutability": "nonpayable",
      "type": "function"
    },
    {
      "inputs": [
        {
          "internalType": "string",
          "name": "_content",
          "type": "string"
        },
        {
          "internalType": "string",
          "name": "_image",
          "type": "string"
        },
        {
          "internalType": "address",
          "name": "_contractAddress",
          "type": "address"
        }
      ],
      "name": "createPost",
      "outputs": [],
      "stateMutability": "nonpayable",
      "type": "function"
    },
    {
      "inputs": [],
      "name": "getAllPosts",
      "outputs": [
        {
          "components": [
            {
              "internalType": "uint256",
              "name": "postId",
              "type": "uint256"
            },
            {
              "internalType": "string",
              "name": "content",
              "type": "string"
            },
            {
              "internalType": "string",
              "name": "image",
              "type": "string"
            },
            {
              "internalType": "address",
              "name": "author",
              "type": "address"
            },
            {
              "internalType": "uint256",
              "name": "likes",
              "type": "uint256"
            },
            {
              "internalType": "uint256",
              "name": "commentCount",
              "type": "uint256"
            },
            {
              "internalType": "address",
              "name": "contractAddress",
              "type": "address"
            },
            {
              "internalType": "uint40",
              "name": "timestamp",
              "type": "uint40"
            }
          ],
          "internalType": "struct Coterie.Post[]",
          "name": "",
          "type": "tuple[]"
        }
      ],
      "stateMutability": "view",
      "type": "function"
    },
    {
      "inputs": [
        {
          "internalType": "uint256",
          "name": "_postId",
          "type": "uint256"
        }
      ],
      "name": "getPostComments",
      "outputs": [
        {
          "components": [
            {
              "internalType": "uint256",
              "name": "postId",
              "type": "uint256"
            },
            {
              "internalType": "uint256",
              "name": "commentId",
              "type": "uint256"
            },
            {
              "internalType": "uint256",
              "name": "likes",
              "type": "uint256"
            },
            {
              "internalType": "string",
              "name": "content",
              "type": "string"
            },
            {
              "internalType": "address",
              "name": "author",
              "type": "address"
            },
            {
              "internalType": "uint40",
              "name": "timestamp",
              "type": "uint40"
            }
          ],
          "internalType": "struct Coterie.Comment[]",
          "name": "",
          "type": "tuple[]"
        }
      ],
      "stateMutability": "view",
      "type": "function"
    },
    {
      "inputs": [],
      "name": "initialize",
      "outputs": [],
      "stateMutability": "nonpayable",
      "type": "function"
    },
    {
      "inputs": [
        {
          "internalType": "uint256",
          "name": "_commentId",
          "type": "uint256"
        }
      ],
      "name": "likeComment",
      "outputs": [],
      "stateMutability": "nonpayable",
      "type": "function"
    },
    {
      "inputs": [
        {
          "internalType": "uint256",
          "name": "_postId",
          "type": "uint256"
        }
      ],
      "name": "likePost",
      "outputs": [],
      "stateMutability": "nonpayable",
      "type": "function"
    },
    {
      "inputs": [],
      "name": "owner",
      "outputs": [
        {
          "internalType": "address",
          "name": "",
          "type": "address"
        }
      ],
      "stateMutability": "view",
      "type": "function"
    },
    {
      "inputs": [],
      "name": "pause",
      "outputs": [],
      "stateMutability": "nonpayable",
      "type": "function"
    },
    {
      "inputs": [],
      "name": "paused",
      "outputs": [
        {
          "internalType": "bool",
          "name": "",
          "type": "bool"
        }
      ],
      "stateMutability": "view",
      "type": "function"
    },
    {
      "inputs": [],
      "name": "postId",
      "outputs": [
        {
          "internalType": "uint256",
          "name": "",
          "type": "uint256"
        }
      ],
      "stateMutability": "view",
      "type": "function"
    },
    {
      "inputs": [
        {
          "internalType": "uint256",
          "name": "",
          "type": "uint256"
        }
      ],
      "name": "posts",
      "outputs": [
        {
          "internalType": "uint256",
          "name": "postId",
          "type": "uint256"
        },
        {
          "internalType": "string",
          "name": "content",
          "type": "string"
        },
        {
          "internalType": "string",
          "name": "image",
          "type": "string"
        },
        {
          "internalType": "address",
          "name": "author",
          "type": "address"
        },
        {
          "internalType": "uint256",
          "name": "likes",
          "type": "uint256"
        },
        {
          "internalType": "uint256",
          "name": "commentCount",
          "type": "uint256"
        },
        {
          "internalType": "address",
          "name": "contractAddress",
          "type": "address"
        },
        {
          "internalType": "uint40",
          "name": "timestamp",
          "type": "uint40"
        }
      ],
      "stateMutability": "view",
      "type": "function"
    },
    {
      "inputs": [],
      "name": "proxiableUUID",
      "outputs": [
        {
          "internalType": "bytes32",
          "name": "",
          "type": "bytes32"
        }
      ],
      "stateMutability": "view",
      "type": "function"
    },
    {
      "inputs": [],
      "name": "renounceOwnership",
      "outputs": [],
      "stateMutability": "nonpayable",
      "type": "function"
    },
    {
      "inputs": [
        {
          "internalType": "address",
          "name": "newOwner",
          "type": "address"
        }
      ],
      "name": "transferOwnership",
      "outputs": [],
      "stateMutability": "nonpayable",
      "type": "function"
    },
    {
      "inputs": [],
      "name": "unpause",
      "outputs": [],
      "stateMutability": "nonpayable",
      "type": "function"
    },
    {
      "inputs": [
        {
          "internalType": "address",
          "name": "newImplementation",
          "type": "address"
        }
      ],
      "name": "upgradeTo",
      "outputs": [],
      "stateMutability": "nonpayable",
      "type": "function"
    },
    {
      "inputs": [
        {
          "internalType": "address",
          "name": "newImplementation",
          "type": "address"
        },
        {
          "internalType": "bytes",
          "name": "data",
          "type": "bytes"
        }
      ],
      "name": "upgradeToAndCall",
      "outputs": [],
      "stateMutability": "payable",
      "type": "function"
    }
  ],
  "bytecode": "0x60a06040523073ffffffffffffffffffffffffffffffffffffffff1660809073ffffffffffffffffffffffffffffffffffffffff168152503480156200004457600080fd5b50620000556200005b60201b60201c565b62000206565b600060019054906101000a900460ff1615620000ae576040517f08c379a0000000000000000000000000000000000000000000000000000000008152600401620000a590620001a9565b60405180910390fd5b60ff801660008054906101000a900460ff1660ff161015620001205760ff6000806101000a81548160ff021916908360ff1602179055507f7f26b83ff96e1f2b6a682f133852f6798a09c465da95921460cefb384740249860ff604051620001179190620001e9565b60405180910390a15b565b600082825260208201905092915050565b7f496e697469616c697a61626c653a20636f6e747261637420697320696e69746960008201527f616c697a696e6700000000000000000000000000000000000000000000000000602082015250565b60006200019160278362000122565b91506200019e8262000133565b604082019050919050565b60006020820190508181036000830152620001c48162000182565b9050919050565b600060ff82169050919050565b620001e381620001cb565b82525050565b6000602082019050620002006000830184620001d8565b92915050565b608051613b476200023e600039600081816109c201528181610a5001528181610d8b01528181610e190152610ec90152613b476000f3fe60806040526004361061011f5760003560e01c8063715018a6116100a05780638da5cb5b116100645780638da5cb5b146103595780638ebb4c1514610384578063d524ff76146103c6578063de3c7f1914610403578063f2fde38b1461042e5761011f565b8063715018a6146102c2578063725009d3146102d95780638129fc1c146103025780638456cb591461031957806386240751146103305761011f565b806340a17985116100e757806340a17985146101fc5780634f1ef2861461022557806352d1902d146102415780635c975abb1461026c57806360a0ecda146102975761011f565b8063012cc1e2146101245780630b1e7f831461014d57806330561100146101915780633659cfe6146101bc5780633f4ba83a146101e5575b600080fd5b34801561013057600080fd5b5061014b600480360381019061014691906122aa565b610457565b005b34801561015957600080fd5b50610174600480360381019061016f91906122aa565b610530565b6040516101889897969594939291906123d7565b60405180910390f35b34801561019d57600080fd5b506101a66106d9565b6040516101b39190612653565b60405180910390f35b3480156101c857600080fd5b506101e360048036038101906101de91906126a1565b6109c0565b005b3480156101f157600080fd5b506101fa610b48565b005b34801561020857600080fd5b50610223600480360381019061021e9190612803565b610b5a565b005b61023f600480360381019061023a9190612900565b610d89565b005b34801561024d57600080fd5b50610256610ec5565b6040516102639190612975565b60405180910390f35b34801561027857600080fd5b50610281610f7e565b60405161028e91906129ab565b60405180910390f35b3480156102a357600080fd5b506102ac610f95565b6040516102b991906129c6565b60405180910390f35b3480156102ce57600080fd5b506102d7610f9b565b005b3480156102e557600080fd5b5061030060048036038101906102fb91906122aa565b610faf565b005b34801561030e57600080fd5b50610317611088565b005b34801561032557600080fd5b5061032e6111d6565b005b34801561033c57600080fd5b50610357600480360381019061035291906129e1565b6111e8565b005b34801561036557600080fd5b5061036e611460565b60405161037b9190612a6c565b60405180910390f35b34801561039057600080fd5b506103ab60048036038101906103a691906122aa565b61148a565b6040516103bd96959493929190612a87565b60405180910390f35b3480156103d257600080fd5b506103ed60048036038101906103e891906122aa565b61157f565b6040516103fa9190612c3a565b60405180910390f35b34801561040f57600080fd5b50610418611806565b60405161042591906129c6565b60405180910390f35b34801561043a57600080fd5b50610455600480360381019061045091906126a1565b61180c565b005b61045f61188f565b600081118015610471575060fc548111155b6104b0576040517f08c379a00000000000000000000000000000000000000000000000000000000081526004016104a790612ca8565b60405180910390fd5b60fe600082815260200190815260200160002060020160008154809291906104d790612cf7565b91905055507f74193480b729de5bd62f8dc477d123a18811cce036b34c0747a1d0f1e8a2a65e813360fe60008581526020019081526020016000206002015460405161052593929190612d3f565b60405180910390a150565b60fd60205280600052604060002060009150905080600001549080600101805461055990612da5565b80601f016020809104026020016040519081016040528092919081815260200182805461058590612da5565b80156105d25780601f106105a7576101008083540402835291602001916105d2565b820191906000526020600020905b8154815290600101906020018083116105b557829003601f168201915b5050505050908060020180546105e790612da5565b80601f016020809104026020016040519081016040528092919081815260200182805461061390612da5565b80156106605780601f1061063557610100808354040283529160200191610660565b820191906000526020600020905b81548152906001019060200180831161064357829003601f168201915b5050505050908060030160009054906101000a900473ffffffffffffffffffffffffffffffffffffffff16908060040154908060050154908060060160009054906101000a900473ffffffffffffffffffffffffffffffffffffffff16908060060160149054906101000a900464ffffffffff16905088565b6060600060fb5467ffffffffffffffff8111156106f9576106f86126d8565b5b60405190808252806020026020018201604052801561073257816020015b61071f612195565b8152602001906001900390816107175790505b5090506000600190505b60fb5481116109b85760fd6000828152602001908152602001600020604051806101000160405290816000820154815260200160018201805461077e90612da5565b80601f01602080910402602001604051908101604052809291908181526020018280546107aa90612da5565b80156107f75780601f106107cc576101008083540402835291602001916107f7565b820191906000526020600020905b8154815290600101906020018083116107da57829003601f168201915b5050505050815260200160028201805461081090612da5565b80601f016020809104026020016040519081016040528092919081815260200182805461083c90612da5565b80156108895780601f1061085e57610100808354040283529160200191610889565b820191906000526020600020905b81548152906001019060200180831161086c57829003601f168201915b505050505081526020016003820160009054906101000a900473ffffffffffffffffffffffffffffffffffffffff1673ffffffffffffffffffffffffffffffffffffffff1673ffffffffffffffffffffffffffffffffffffffff16815260200160048201548152602001600582015481526020016006820160009054906101000a900473ffffffffffffffffffffffffffffffffffffffff1673ffffffffffffffffffffffffffffffffffffffff1673ffffffffffffffffffffffffffffffffffffffff1681526020016006820160149054906101000a900464ffffffffff1664ffffffffff1664ffffffffff1681525050826001836109899190612dd6565b8151811061099a57610999612e0a565b5b602002602001018190525080806109b090612cf7565b91505061073c565b508091505090565b7f000000000000000000000000000000000000000000000000000000000000000073ffffffffffffffffffffffffffffffffffffffff163073ffffffffffffffffffffffffffffffffffffffff1603610a4e576040517f08c379a0000000000000000000000000000000000000000000000000000000008152600401610a4590612eab565b60405180910390fd5b7f000000000000000000000000000000000000000000000000000000000000000073ffffffffffffffffffffffffffffffffffffffff16610a8d6118d9565b73ffffffffffffffffffffffffffffffffffffffff1614610ae3576040517f08c379a0000000000000000000000000000000000000000000000000000000008152600401610ada90612f3d565b60405180910390fd5b610aec81611930565b610b4581600067ffffffffffffffff811115610b0b57610b0a6126d8565b5b6040519080825280601f01601f191660200182016040528015610b3d5781602001600182028036833780820191505090505b50600061193b565b50565b610b50611aa9565b610b58611b27565b565b610b6261188f565b6000815111610ba6576040517f08c379a0000000000000000000000000000000000000000000000000000000008152600401610b9d90612fa9565b60405180910390fd5b600082118015610bb8575060fb548211155b610bf7576040517f08c379a0000000000000000000000000000000000000000000000000000000008152600401610bee90613015565b60405180910390fd5b60fc6000815480929190610c0a90612cf7565b91905055506040518060c0016040528083815260200160fc548152602001600081526020018281526020013373ffffffffffffffffffffffffffffffffffffffff1681526020014264ffffffffff1681525060fe600060fc5481526020019081526020016000206000820151816000015560208201518160010155604082015181600201556060820151816003019081610ca491906131e1565b5060808201518160040160006101000a81548173ffffffffffffffffffffffffffffffffffffffff021916908373ffffffffffffffffffffffffffffffffffffffff16021790555060a08201518160040160146101000a81548164ffffffffff021916908364ffffffffff16021790555090505060fd60008381526020019081526020016000206005016000815480929190610d3f90612cf7565b91905055507f6ea9605d0243d968938ab0ecdf8178e72bb9141e4b90fe04ac0cc06d4d400b998260fc54833342604051610d7d9594939291906132b3565b60405180910390a15050565b7f000000000000000000000000000000000000000000000000000000000000000073ffffffffffffffffffffffffffffffffffffffff163073ffffffffffffffffffffffffffffffffffffffff1603610e17576040517f08c379a0000000000000000000000000000000000000000000000000000000008152600401610e0e90612eab565b60405180910390fd5b7f000000000000000000000000000000000000000000000000000000000000000073ffffffffffffffffffffffffffffffffffffffff16610e566118d9565b73ffffffffffffffffffffffffffffffffffffffff1614610eac576040517f08c379a0000000000000000000000000000000000000000000000000000000008152600401610ea390612f3d565b60405180910390fd5b610eb582611930565b610ec18282600161193b565b5050565b60007f000000000000000000000000000000000000000000000000000000000000000073ffffffffffffffffffffffffffffffffffffffff163073ffffffffffffffffffffffffffffffffffffffff1614610f55576040517f08c379a0000000000000000000000000000000000000000000000000000000008152600401610f4c9061337f565b60405180910390fd5b7f360894a13ba1a3210667c828492db98dca3e2076cc3735a920a3ca505d382bbc60001b905090565b6000603360009054906101000a900460ff16905090565b60fb5481565b610fa3611aa9565b610fad6000611b8a565b565b610fb761188f565b600081118015610fc9575060fb548111155b611008576040517f08c379a0000000000000000000000000000000000000000000000000000000008152600401610fff90613015565b60405180910390fd5b60fd6000828152602001908152602001600020600401600081548092919061102f90612cf7565b91905055507fdfb8e3561bacb6caea7f0960d425956921b9147a631b6e857325c39911ee7e3b813360fd60008581526020019081526020016000206004015460405161107d93929190612d3f565b60405180910390a150565b60008060019054906101000a900460ff161590508080156110b95750600160008054906101000a900460ff1660ff16105b806110e657506110c830611c50565b1580156110e55750600160008054906101000a900460ff1660ff16145b5b611125576040517f08c379a000000000000000000000000000000000000000000000000000000000815260040161111c90613411565b60405180910390fd5b60016000806101000a81548160ff021916908360ff1602179055508015611162576001600060016101000a81548160ff0219169083151502179055505b61116a611c73565b611172611ccc565b61117a611d25565b80156111d35760008060016101000a81548160ff0219169083151502179055507f7f26b83ff96e1f2b6a682f133852f6798a09c465da95921460cefb384740249860016040516111ca9190613479565b60405180910390a15b50565b6111de611aa9565b6111e6611d76565b565b6111f061188f565b6000835111611234576040517f08c379a000000000000000000000000000000000000000000000000000000000815260040161122b90612fa9565b60405180910390fd5b6000825111611278576040517f08c379a000000000000000000000000000000000000000000000000000000000815260040161126f906134e0565b60405180910390fd5b60fb600081548092919061128b90612cf7565b919050555060405180610100016040528060fb5481526020018481526020018381526020013373ffffffffffffffffffffffffffffffffffffffff16815260200160008152602001600081526020018273ffffffffffffffffffffffffffffffffffffffff1681526020014264ffffffffff1681525060fd600060fb54815260200190815260200160002060008201518160000155602082015181600101908161133591906131e1565b50604082015181600201908161134b91906131e1565b5060608201518160030160006101000a81548173ffffffffffffffffffffffffffffffffffffffff021916908373ffffffffffffffffffffffffffffffffffffffff1602179055506080820151816004015560a0820151816005015560c08201518160060160006101000a81548173ffffffffffffffffffffffffffffffffffffffff021916908373ffffffffffffffffffffffffffffffffffffffff16021790555060e08201518160060160146101000a81548164ffffffffff021916908364ffffffffff1602179055509050507f347b8e60e0dad9c20fd7bbba09a72a483634cae3d31b84f7390d198cc871c25160fb5484843342604051611453959493929190613500565b60405180910390a1505050565b6000606560009054906101000a900473ffffffffffffffffffffffffffffffffffffffff16905090565b60fe6020528060005260406000206000915090508060000154908060010154908060020154908060030180546114bf90612da5565b80601f01602080910402602001604051908101604052809291908181526020018280546114eb90612da5565b80156115385780601f1061150d57610100808354040283529160200191611538565b820191906000526020600020905b81548152906001019060200180831161151b57829003601f168201915b5050505050908060040160009054906101000a900473ffffffffffffffffffffffffffffffffffffffff16908060040160149054906101000a900464ffffffffff16905086565b6060600082118015611593575060fb548211155b6115d2576040517f08c379a00000000000000000000000000000000000000000000000000000000081526004016115c990613015565b60405180910390fd5b600060fd60008481526020019081526020016000206005015467ffffffffffffffff811115611604576116036126d8565b5b60405190808252806020026020018201604052801561163d57816020015b61162a61220d565b8152602001906001900390816116225790505b509050600080600190505b60fc5481116117fb578460fe600083815260200190815260200160002060000154036117e85760fe60008281526020019081526020016000206040518060c00160405290816000820154815260200160018201548152602001600282015481526020016003820180546116ba90612da5565b80601f01602080910402602001604051908101604052809291908181526020018280546116e690612da5565b80156117335780601f1061170857610100808354040283529160200191611733565b820191906000526020600020905b81548152906001019060200180831161171657829003601f168201915b505050505081526020016004820160009054906101000a900473ffffffffffffffffffffffffffffffffffffffff1673ffffffffffffffffffffffffffffffffffffffff1673ffffffffffffffffffffffffffffffffffffffff1681526020016004820160149054906101000a900464ffffffffff1664ffffffffff1664ffffffffff16815250508383815181106117ce576117cd612e0a565b5b602002602001018190525081806117e490612cf7565b9250505b80806117f390612cf7565b915050611648565b508192505050919050565b60fc5481565b611814611aa9565b600073ffffffffffffffffffffffffffffffffffffffff168173ffffffffffffffffffffffffffffffffffffffff1603611883576040517f08c379a000000000000000000000000000000000000000000000000000000000815260040161187a906135d3565b60405180910390fd5b61188c81611b8a565b50565b611897610f7e565b156118d7576040517f08c379a00000000000000000000000000000000000000000000000000000000081526004016118ce9061363f565b60405180910390fd5b565b60006119077f360894a13ba1a3210667c828492db98dca3e2076cc3735a920a3ca505d382bbc60001b611dd9565b60000160009054906101000a900473ffffffffffffffffffffffffffffffffffffffff16905090565b611938611aa9565b50565b6119677f4910fdfa16fed3260ed0e7147f7cc6da11a60208b5b9406d12a635614ffd914360001b611de3565b60000160009054906101000a900460ff161561198b5761198683611ded565b611aa4565b8273ffffffffffffffffffffffffffffffffffffffff166352d1902d6040518163ffffffff1660e01b8152600401602060405180830381865afa9250505080156119f357506040513d601f19601f820116820180604052508101906119f0919061368b565b60015b611a32576040517f08c379a0000000000000000000000000000000000000000000000000000000008152600401611a299061372a565b60405180910390fd5b7f360894a13ba1a3210667c828492db98dca3e2076cc3735a920a3ca505d382bbc60001b8114611a97576040517f08c379a0000000000000000000000000000000000000000000000000000000008152600401611a8e906137bc565b60405180910390fd5b50611aa3838383611ea6565b5b505050565b611ab1611ed2565b73ffffffffffffffffffffffffffffffffffffffff16611acf611460565b73ffffffffffffffffffffffffffffffffffffffff1614611b25576040517f08c379a0000000000000000000000000000000000000000000000000000000008152600401611b1c90613828565b60405180910390fd5b565b611b2f611eda565b6000603360006101000a81548160ff0219169083151502179055507f5db9ee0a495bf2e6ff9c91a7834c1ba4fdd244a5e8aa4e537bd38aeae4b073aa611b73611ed2565b604051611b809190612a6c565b60405180910390a1565b6000606560009054906101000a900473ffffffffffffffffffffffffffffffffffffffff16905081606560006101000a81548173ffffffffffffffffffffffffffffffffffffffff021916908373ffffffffffffffffffffffffffffffffffffffff1602179055508173ffffffffffffffffffffffffffffffffffffffff168173ffffffffffffffffffffffffffffffffffffffff167f8be0079c531659141344cd1fd0a4f28419497f9722a3daafe3b4186f6b6457e060405160405180910390a35050565b6000808273ffffffffffffffffffffffffffffffffffffffff163b119050919050565b600060019054906101000a900460ff16611cc2576040517f08c379a0000000000000000000000000000000000000000000000000000000008152600401611cb9906138ba565b60405180910390fd5b611cca611f23565b565b600060019054906101000a900460ff16611d1b576040517f08c379a0000000000000000000000000000000000000000000000000000000008152600401611d12906138ba565b60405180910390fd5b611d23611f8f565b565b600060019054906101000a900460ff16611d74576040517f08c379a0000000000000000000000000000000000000000000000000000000008152600401611d6b906138ba565b60405180910390fd5b565b611d7e61188f565b6001603360006101000a81548160ff0219169083151502179055507f62e78cea01bee320cd4e420270b5ea74000d11b0c9f74754ebdbfc544b05a258611dc2611ed2565b604051611dcf9190612a6c565b60405180910390a1565b6000819050919050565b6000819050919050565b611df681611c50565b611e35576040517f08c379a0000000000000000000000000000000000000000000000000000000008152600401611e2c9061394c565b60405180910390fd5b80611e627f360894a13ba1a3210667c828492db98dca3e2076cc3735a920a3ca505d382bbc60001b611dd9565b60000160006101000a81548173ffffffffffffffffffffffffffffffffffffffff021916908373ffffffffffffffffffffffffffffffffffffffff16021790555050565b611eaf83611ff0565b600082511180611ebc5750805b15611ecd57611ecb838361203f565b505b505050565b600033905090565b611ee2610f7e565b611f21576040517f08c379a0000000000000000000000000000000000000000000000000000000008152600401611f18906139b8565b60405180910390fd5b565b600060019054906101000a900460ff16611f72576040517f08c379a0000000000000000000000000000000000000000000000000000000008152600401611f69906138ba565b60405180910390fd5b6000603360006101000a81548160ff021916908315150217905550565b600060019054906101000a900460ff16611fde576040517f08c379a0000000000000000000000000000000000000000000000000000000008152600401611fd5906138ba565b60405180910390fd5b611fee611fe9611ed2565b611b8a565b565b611ff981611ded565b8073ffffffffffffffffffffffffffffffffffffffff167fbc7cd75a20ee27fd9adebab32041f755214dbc6bffa90cc0225b39da2e5c2d3b60405160405180910390a250565b606061204a83611c50565b612089576040517f08c379a000000000000000000000000000000000000000000000000000000000815260040161208090613a4a565b60405180910390fd5b6000808473ffffffffffffffffffffffffffffffffffffffff16846040516120b19190613ab1565b600060405180830381855af49150503d80600081146120ec576040519150601f19603f3d011682016040523d82523d6000602084013e6120f1565b606091505b50915091506121198282604051806060016040528060278152602001613aeb60279139612123565b9250505092915050565b606083156121335782905061213e565b61213d8383612145565b5b9392505050565b6000825111156121585781518083602001fd5b806040517f08c379a000000000000000000000000000000000000000000000000000000000815260040161218c9190613ac8565b60405180910390fd5b604051806101000160405280600081526020016060815260200160608152602001600073ffffffffffffffffffffffffffffffffffffffff1681526020016000815260200160008152602001600073ffffffffffffffffffffffffffffffffffffffff168152602001600064ffffffffff1681525090565b6040518060c0016040528060008152602001600081526020016000815260200160608152602001600073ffffffffffffffffffffffffffffffffffffffff168152602001600064ffffffffff1681525090565b6000604051905090565b600080fd5b600080fd5b6000819050919050565b61228781612274565b811461229257600080fd5b50565b6000813590506122a48161227e565b92915050565b6000602082840312156122c0576122bf61226a565b5b60006122ce84828501612295565b91505092915050565b6122e081612274565b82525050565b600081519050919050565b600082825260208201905092915050565b60005b83811015612320578082015181840152602081019050612305565b60008484015250505050565b6000601f19601f8301169050919050565b6000612348826122e6565b61235281856122f1565b9350612362818560208601612302565b61236b8161232c565b840191505092915050565b600073ffffffffffffffffffffffffffffffffffffffff82169050919050565b60006123a182612376565b9050919050565b6123b181612396565b82525050565b600064ffffffffff82169050919050565b6123d1816123b7565b82525050565b6000610100820190506123ed600083018b6122d7565b81810360208301526123ff818a61233d565b90508181036040830152612413818961233d565b905061242260608301886123a8565b61242f60808301876122d7565b61243c60a08301866122d7565b61244960c08301856123a8565b61245660e08301846123c8565b9998505050505050505050565b600081519050919050565b600082825260208201905092915050565b6000819050602082019050919050565b61249881612274565b82525050565b600082825260208201905092915050565b60006124ba826122e6565b6124c4818561249e565b93506124d4818560208601612302565b6124dd8161232c565b840191505092915050565b6124f181612396565b82525050565b612500816123b7565b82525050565b60006101008301600083015161251f600086018261248f565b506020830151848203602086015261253782826124af565b9150506040830151848203604086015261255182826124af565b915050606083015161256660608601826124e8565b506080830151612579608086018261248f565b5060a083015161258c60a086018261248f565b5060c083015161259f60c08601826124e8565b5060e08301516125b260e08601826124f7565b508091505092915050565b60006125c98383612506565b905092915050565b6000602082019050919050565b60006125e982612463565b6125f3818561246e565b9350836020820285016126058561247f565b8060005b85811015612641578484038952815161262285826125bd565b945061262d836125d1565b925060208a01995050600181019050612609565b50829750879550505050505092915050565b6000602082019050818103600083015261266d81846125de565b905092915050565b61267e81612396565b811461268957600080fd5b50565b60008135905061269b81612675565b92915050565b6000602082840312156126b7576126b661226a565b5b60006126c58482850161268c565b91505092915050565b600080fd5b600080fd5b7f4e487b7100000000000000000000000000000000000000000000000000000000600052604160045260246000fd5b6127108261232c565b810181811067ffffffffffffffff8211171561272f5761272e6126d8565b5b80604052505050565b6000612742612260565b905061274e8282612707565b919050565b600067ffffffffffffffff82111561276e5761276d6126d8565b5b6127778261232c565b9050602081019050919050565b82818337600083830152505050565b60006127a66127a184612753565b612738565b9050828152602081018484840111156127c2576127c16126d3565b5b6127cd848285612784565b509392505050565b600082601f8301126127ea576127e96126ce565b5b81356127fa848260208601612793565b91505092915050565b6000806040838503121561281a5761281961226a565b5b600061282885828601612295565b925050602083013567ffffffffffffffff8111156128495761284861226f565b5b612855858286016127d5565b9150509250929050565b600067ffffffffffffffff82111561287a576128796126d8565b5b6128838261232c565b9050602081019050919050565b60006128a361289e8461285f565b612738565b9050828152602081018484840111156128bf576128be6126d3565b5b6128ca848285612784565b509392505050565b600082601f8301126128e7576128e66126ce565b5b81356128f7848260208601612890565b91505092915050565b600080604083850312156129175761291661226a565b5b60006129258582860161268c565b925050602083013567ffffffffffffffff8111156129465761294561226f565b5b612952858286016128d2565b9150509250929050565b6000819050919050565b61296f8161295c565b82525050565b600060208201905061298a6000830184612966565b92915050565b60008115159050919050565b6129a581612990565b82525050565b60006020820190506129c0600083018461299c565b92915050565b60006020820190506129db60008301846122d7565b92915050565b6000806000606084860312156129fa576129f961226a565b5b600084013567ffffffffffffffff811115612a1857612a1761226f565b5b612a24868287016127d5565b935050602084013567ffffffffffffffff811115612a4557612a4461226f565b5b612a51868287016127d5565b9250506040612a628682870161268c565b9150509250925092565b6000602082019050612a8160008301846123a8565b92915050565b600060c082019050612a9c60008301896122d7565b612aa960208301886122d7565b612ab660408301876122d7565b8181036060830152612ac8818661233d565b9050612ad760808301856123a8565b612ae460a08301846123c8565b979650505050505050565b600081519050919050565b600082825260208201905092915050565b6000819050602082019050919050565b600060c083016000830151612b33600086018261248f565b506020830151612b46602086018261248f565b506040830151612b59604086018261248f565b5060608301518482036060860152612b7182826124af565b9150506080830151612b8660808601826124e8565b5060a0830151612b9960a08601826124f7565b508091505092915050565b6000612bb08383612b1b565b905092915050565b6000602082019050919050565b6000612bd082612aef565b612bda8185612afa565b935083602082028501612bec85612b0b565b8060005b85811015612c285784840389528151612c098582612ba4565b9450612c1483612bb8565b925060208a01995050600181019050612bf0565b50829750879550505050505092915050565b60006020820190508181036000830152612c548184612bc5565b905092915050565b7f496e76616c696420636f6d6d656e742069640000000000000000000000000000600082015250565b6000612c926012836122f1565b9150612c9d82612c5c565b602082019050919050565b60006020820190508181036000830152612cc181612c85565b9050919050565b7f4e487b7100000000000000000000000000000000000000000000000000000000600052601160045260246000fd5b6000612d0282612274565b91507fffffffffffffffffffffffffffffffffffffffffffffffffffffffffffffffff8203612d3457612d33612cc8565b5b600182019050919050565b6000606082019050612d5460008301866122d7565b612d6160208301856123a8565b612d6e60408301846122d7565b949350505050565b7f4e487b7100000000000000000000000000000000000000000000000000000000600052602260045260246000fd5b60006002820490506001821680612dbd57607f821691505b602082108103612dd057612dcf612d76565b5b50919050565b6000612de182612274565b9150612dec83612274565b9250828203905081811115612e0457612e03612cc8565b5b92915050565b7f4e487b7100000000000000000000000000000000000000000000000000000000600052603260045260246000fd5b7f46756e6374696f6e206d7573742062652063616c6c6564207468726f7567682060008201527f64656c656761746563616c6c0000000000000000000000000000000000000000602082015250565b6000612e95602c836122f1565b9150612ea082612e39565b604082019050919050565b60006020820190508181036000830152612ec481612e88565b9050919050565b7f46756e6374696f6e206d7573742062652063616c6c6564207468726f7567682060008201527f6163746976652070726f78790000000000000000000000000000000000000000602082015250565b6000612f27602c836122f1565b9150612f3282612ecb565b604082019050919050565b60006020820190508181036000830152612f5681612f1a565b9050919050565b7f436f6e74656e7420697320726571756972656400000000000000000000000000600082015250565b6000612f936013836122f1565b9150612f9e82612f5d565b602082019050919050565b60006020820190508181036000830152612fc281612f86565b9050919050565b7f496e76616c696420706f73742069640000000000000000000000000000000000600082015250565b6000612fff600f836122f1565b915061300a82612fc9565b602082019050919050565b6000602082019050818103600083015261302e81612ff2565b9050919050565b60008190508160005260206000209050919050565b60006020601f8301049050919050565b600082821b905092915050565b6000600883026130977fffffffffffffffffffffffffffffffffffffffffffffffffffffffffffffffff8261305a565b6130a1868361305a565b95508019841693508086168417925050509392505050565b6000819050919050565b60006130de6130d96130d484612274565b6130b9565b612274565b9050919050565b6000819050919050565b6130f8836130c3565b61310c613104826130e5565b848454613067565b825550505050565b600090565b613121613114565b61312c8184846130ef565b505050565b5b8181101561315057613145600082613119565b600181019050613132565b5050565b601f8211156131955761316681613035565b61316f8461304a565b8101602085101561317e578190505b61319261318a8561304a565b830182613131565b50505b505050565b600082821c905092915050565b60006131b86000198460080261319a565b1980831691505092915050565b60006131d183836131a7565b9150826002028217905092915050565b6131ea826122e6565b67ffffffffffffffff811115613203576132026126d8565b5b61320d8254612da5565b613218828285613154565b600060209050601f83116001811461324b5760008415613239578287015190505b61324385826131c5565b8655506132ab565b601f19841661325986613035565b60005b828110156132815784890151825560018201915060208501945060208101905061325c565b8683101561329e578489015161329a601f8916826131a7565b8355505b6001600288020188555050505b505050505050565b600060a0820190506132c860008301886122d7565b6132d560208301876122d7565b81810360408301526132e7818661233d565b90506132f660608301856123a8565b61330360808301846123c8565b9695505050505050565b7f555550535570677261646561626c653a206d757374206e6f742062652063616c60008201527f6c6564207468726f7567682064656c656761746563616c6c0000000000000000602082015250565b60006133696038836122f1565b91506133748261330d565b604082019050919050565b600060208201905081810360008301526133988161335c565b9050919050565b7f496e697469616c697a61626c653a20636f6e747261637420697320616c72656160008201527f647920696e697469616c697a6564000000000000000000000000000000000000602082015250565b60006133fb602e836122f1565b91506134068261339f565b604082019050919050565b6000602082019050818103600083015261342a816133ee565b9050919050565b6000819050919050565b600060ff82169050919050565b600061346361345e61345984613431565b6130b9565b61343b565b9050919050565b61347381613448565b82525050565b600060208201905061348e600083018461346a565b92915050565b7f496d616765206973207265717569726564000000000000000000000000000000600082015250565b60006134ca6011836122f1565b91506134d582613494565b602082019050919050565b600060208201905081810360008301526134f9816134bd565b9050919050565b600060a08201905061351560008301886122d7565b8181036020830152613527818761233d565b9050818103604083015261353b818661233d565b905061354a60608301856123a8565b61355760808301846123c8565b9695505050505050565b7f4f776e61626c653a206e6577206f776e657220697320746865207a65726f206160008201527f6464726573730000000000000000000000000000000000000000000000000000602082015250565b60006135bd6026836122f1565b91506135c882613561565b604082019050919050565b600060208201905081810360008301526135ec816135b0565b9050919050565b7f5061757361626c653a2070617573656400000000000000000000000000000000600082015250565b60006136296010836122f1565b9150613634826135f3565b602082019050919050565b600060208201905081810360008301526136588161361c565b9050919050565b6136688161295c565b811461367357600080fd5b50565b6000815190506136858161365f565b92915050565b6000602082840312156136a1576136a061226a565b5b60006136af84828501613676565b91505092915050565b7f45524331393637557067726164653a206e657720696d706c656d656e7461746960008201527f6f6e206973206e6f742055555053000000000000000000000000000000000000602082015250565b6000613714602e836122f1565b915061371f826136b8565b604082019050919050565b6000602082019050818103600083015261374381613707565b9050919050565b7f45524331393637557067726164653a20756e737570706f727465642070726f7860008201527f6961626c65555549440000000000000000000000000000000000000000000000602082015250565b60006137a66029836122f1565b91506137b18261374a565b604082019050919050565b600060208201905081810360008301526137d581613799565b9050919050565b7f4f776e61626c653a2063616c6c6572206973206e6f7420746865206f776e6572600082015250565b60006138126020836122f1565b915061381d826137dc565b602082019050919050565b6000602082019050818103600083015261384181613805565b9050919050565b7f496e697469616c697a61626c653a20636f6e7472616374206973206e6f74206960008201527f6e697469616c697a696e67000000000000000000000000000000000000000000602082015250565b60006138a4602b836122f1565b91506138af82613848565b604082019050919050565b600060208201905081810360008301526138d381613897565b9050919050565b7f455243313936373a206e657720696d706c656d656e746174696f6e206973206e60008201527f6f74206120636f6e747261637400000000000000000000000000000000000000602082015250565b6000613936602d836122f1565b9150613941826138da565b604082019050919050565b6000602082019050818103600083015261396581613929565b9050919050565b7f5061757361626c653a206e6f7420706175736564000000000000000000000000600082015250565b60006139a26014836122f1565b91506139ad8261396c565b602082019050919050565b600060208201905081810360008301526139d181613995565b9050919050565b7f416464726573733a2064656c65676174652063616c6c20746f206e6f6e2d636f60008201527f6e74726163740000000000000000000000000000000000000000000000000000602082015250565b6000613a346026836122f1565b9150613a3f826139d8565b604082019050919050565b60006020820190508181036000830152613a6381613a27565b9050919050565b600081519050919050565b600081905092915050565b6000613a8b82613a6a565b613a958185613a75565b9350613aa5818560208601612302565b80840191505092915050565b6000613abd8284613a80565b915081905092915050565b60006020820190508181036000830152613ae2818461233d565b90509291505056fe416464726573733a206c6f772d6c6576656c2064656c65676174652063616c6c206661696c6564a264697066735822122055b5bdc9b59e162d68a6609f489bb4be113ef75660158506d6120dd51d42a4cb64736f6c63430008110033",
  "linkReferences": {},
  "deployedLinkReferences": {}
}